{
  "_format": "hh-sol-artifact-1",
  "contractName": "PlayerRegistry",
  "sourceName": "contracts/PlayerRegistry.sol",
  "abi": [
    {
      "anonymous": false,
      "inputs": [
        {
          "indexed": true,
          "internalType": "address",
          "name": "playerAddress",
          "type": "address"
        }
      ],
      "name": "PlayerRegistered",
      "type": "event"
    },
    {
      "inputs": [],
      "name": "getTotalPlayers",
      "outputs": [
        {
          "internalType": "uint256",
          "name": "",
          "type": "uint256"
        }
      ],
      "stateMutability": "view",
      "type": "function"
    },
    {
      "inputs": [
        {
          "internalType": "address",
          "name": "playerAddress",
          "type": "address"
        }
      ],
      "name": "isRegistered",
      "outputs": [
        {
          "internalType": "bool",
          "name": "",
          "type": "bool"
        }
      ],
      "stateMutability": "view",
      "type": "function"
    },
    {
      "inputs": [
        {
          "internalType": "uint256",
          "name": "",
          "type": "uint256"
        }
      ],
      "name": "players",
      "outputs": [
        {
          "internalType": "address",
          "name": "",
          "type": "address"
        }
      ],
      "stateMutability": "view",
      "type": "function"
    },
    {
      "inputs": [],
      "name": "register",
      "outputs": [],
      "stateMutability": "nonpayable",
      "type": "function"
    }
  ],
  "bytecode": "0x608060405234801561001057600080fd5b5061027d806100206000396000f3fe608060405234801561001057600080fd5b506004361061004c5760003560e01c80631aa3a008146100515780634529cae71461005b578063c3c5a54714610071578063f71d96cb146100ad575b600080fd5b6100596100d8565b005b6001546040519081526020015b60405180910390f35b61009d61007f3660046101fe565b6001600160a01b031660009081526020819052604090205460ff1690565b6040519015158152602001610068565b6100c06100bb36600461022e565b6101d4565b6040516001600160a01b039091168152602001610068565b3360009081526020819052604090205460ff16156101535760405162461bcd60e51b815260206004820152602e60248201527f506c6179657252656769737472793a204164647265737320697320616c72656160448201526d323c903932b3b4b9ba32b932b21760911b606482015260840160405180910390fd5b33600081815260208190526040808220805460ff19166001908117909155805480820182559083527fb10e2d527612073b26eecdfd717e6a320cf44b4afac2b0732d9fcbe2b7fa0cf60180546001600160a01b03191684179055517f8cd3331e32cec677d80b82cf0f71496605e7ed6ff864a3ccedc7d5d11d838c839190a2565b600181815481106101e457600080fd5b6000918252602090912001546001600160a01b0316905081565b60006020828403121561021057600080fd5b81356001600160a01b038116811461022757600080fd5b9392505050565b60006020828403121561024057600080fd5b503591905056fea2646970667358221220fdadad54d85840aa66a1dc67ef16507bfb284628d528efa20a72d6f7cd105cb164736f6c63430008180033",
  "linkReferences": {},
  "deployedLinkReferences": {}
}